{
  "address": "0x2475181E30FcFFA7A636eDc469BE56d9080F4A8c",
  "abi": [
    {
      "inputs": [
        {
          "internalType": "address",
          "name": "admin",
          "type": "address"
        }
      ],
      "stateMutability": "nonpayable",
      "type": "constructor"
    },
    {
      "inputs": [],
      "name": "AccessControlBadConfirmation",
      "type": "error"
    },
    {
      "inputs": [
        {
          "internalType": "address",
          "name": "account",
          "type": "address"
        },
        {
          "internalType": "bytes32",
          "name": "neededRole",
          "type": "bytes32"
        }
      ],
      "name": "AccessControlUnauthorizedAccount",
      "type": "error"
    },
    {
      "inputs": [
        {
          "internalType": "address",
          "name": "who",
          "type": "address"
        }
      ],
      "name": "Banned",
      "type": "error"
    },
    {
      "inputs": [],
      "name": "CannotUnbanMyself",
      "type": "error"
    },
    {
      "inputs": [],
      "name": "CapHasBeenReached",
      "type": "error"
    },
    {
      "inputs": [],
      "name": "ECDSAInvalidSignature",
      "type": "error"
    },
    {
      "inputs": [
        {
          "internalType": "uint256",
          "name": "length",
          "type": "uint256"
        }
      ],
      "name": "ECDSAInvalidSignatureLength",
      "type": "error"
    },
    {
      "inputs": [
        {
          "internalType": "bytes32",
          "name": "s",
          "type": "bytes32"
        }
      ],
      "name": "ECDSAInvalidSignatureS",
      "type": "error"
    },
    {
      "inputs": [
        {
          "internalType": "address",
          "name": "spender",
          "type": "address"
        },
        {
          "internalType": "uint256",
          "name": "allowance",
          "type": "uint256"
        },
        {
          "internalType": "uint256",
          "name": "needed",
          "type": "uint256"
        }
      ],
      "name": "ERC20InsufficientAllowance",
      "type": "error"
    },
    {
      "inputs": [
        {
          "internalType": "address",
          "name": "sender",
          "type": "address"
        },
        {
          "internalType": "uint256",
          "name": "balance",
          "type": "uint256"
        },
        {
          "internalType": "uint256",
          "name": "needed",
          "type": "uint256"
        }
      ],
      "name": "ERC20InsufficientBalance",
      "type": "error"
    },
    {
      "inputs": [
        {
          "internalType": "address",
          "name": "approver",
          "type": "address"
        }
      ],
      "name": "ERC20InvalidApprover",
      "type": "error"
    },
    {
      "inputs": [
        {
          "internalType": "address",
          "name": "receiver",
          "type": "address"
        }
      ],
      "name": "ERC20InvalidReceiver",
      "type": "error"
    },
    {
      "inputs": [
        {
          "internalType": "address",
          "name": "sender",
          "type": "address"
        }
      ],
      "name": "ERC20InvalidSender",
      "type": "error"
    },
    {
      "inputs": [
        {
          "internalType": "address",
          "name": "spender",
          "type": "address"
        }
      ],
      "name": "ERC20InvalidSpender",
      "type": "error"
    },
    {
      "inputs": [
        {
          "internalType": "uint256",
          "name": "deadline",
          "type": "uint256"
        }
      ],
      "name": "ERC2612ExpiredSignature",
      "type": "error"
    },
    {
      "inputs": [
        {
          "internalType": "address",
          "name": "signer",
          "type": "address"
        },
        {
          "internalType": "address",
          "name": "owner",
          "type": "address"
        }
      ],
      "name": "ERC2612InvalidSigner",
      "type": "error"
    },
    {
      "inputs": [],
      "name": "EnforcedPause",
      "type": "error"
    },
    {
      "inputs": [],
      "name": "ExpectedPause",
      "type": "error"
    },
    {
      "inputs": [
        {
          "internalType": "address",
          "name": "account",
          "type": "address"
        },
        {
          "internalType": "uint256",
          "name": "currentNonce",
          "type": "uint256"
        }
      ],
      "name": "InvalidAccountNonce",
      "type": "error"
    },
    {
      "inputs": [],
      "name": "InvalidShortString",
      "type": "error"
    },
    {
      "inputs": [
        {
          "internalType": "uint256",
          "name": "passedValue",
          "type": "uint256"
        }
      ],
      "name": "MaxTaxHasBeenReached",
      "type": "error"
    },
    {
      "inputs": [
        {
          "internalType": "string",
          "name": "str",
          "type": "string"
        }
      ],
      "name": "StringTooLong",
      "type": "error"
    },
    {
      "anonymous": false,
      "inputs": [
        {
          "indexed": true,
          "internalType": "address",
          "name": "owner",
          "type": "address"
        },
        {
          "indexed": true,
          "internalType": "address",
          "name": "spender",
          "type": "address"
        },
        {
          "indexed": false,
          "internalType": "uint256",
          "name": "value",
          "type": "uint256"
        }
      ],
      "name": "Approval",
      "type": "event"
    },
    {
      "anonymous": false,
      "inputs": [],
      "name": "EIP712DomainChanged",
      "type": "event"
    },
    {
      "anonymous": false,
      "inputs": [
        {
          "indexed": false,
          "internalType": "address",
          "name": "account",
          "type": "address"
        }
      ],
      "name": "Paused",
      "type": "event"
    },
    {
      "anonymous": false,
      "inputs": [
        {
          "indexed": true,
          "internalType": "bytes32",
          "name": "role",
          "type": "bytes32"
        },
        {
          "indexed": true,
          "internalType": "bytes32",
          "name": "previousAdminRole",
          "type": "bytes32"
        },
        {
          "indexed": true,
          "internalType": "bytes32",
          "name": "newAdminRole",
          "type": "bytes32"
        }
      ],
      "name": "RoleAdminChanged",
      "type": "event"
    },
    {
      "anonymous": false,
      "inputs": [
        {
          "indexed": true,
          "internalType": "bytes32",
          "name": "role",
          "type": "bytes32"
        },
        {
          "indexed": true,
          "internalType": "address",
          "name": "account",
          "type": "address"
        },
        {
          "indexed": true,
          "internalType": "address",
          "name": "sender",
          "type": "address"
        }
      ],
      "name": "RoleGranted",
      "type": "event"
    },
    {
      "anonymous": false,
      "inputs": [
        {
          "indexed": true,
          "internalType": "bytes32",
          "name": "role",
          "type": "bytes32"
        },
        {
          "indexed": true,
          "internalType": "address",
          "name": "account",
          "type": "address"
        },
        {
          "indexed": true,
          "internalType": "address",
          "name": "sender",
          "type": "address"
        }
      ],
      "name": "RoleRevoked",
      "type": "event"
    },
    {
      "anonymous": false,
      "inputs": [
        {
          "indexed": true,
          "internalType": "address",
          "name": "from",
          "type": "address"
        },
        {
          "indexed": true,
          "internalType": "address",
          "name": "to",
          "type": "address"
        },
        {
          "indexed": false,
          "internalType": "uint256",
          "name": "value",
          "type": "uint256"
        }
      ],
      "name": "Transfer",
      "type": "event"
    },
    {
      "anonymous": false,
      "inputs": [
        {
          "indexed": false,
          "internalType": "address",
          "name": "account",
          "type": "address"
        }
      ],
      "name": "Unpaused",
      "type": "event"
    },
    {
      "inputs": [],
      "name": "BANNED_ROLE",
      "outputs": [
        {
          "internalType": "bytes32",
          "name": "",
          "type": "bytes32"
        }
      ],
      "stateMutability": "view",
      "type": "function"
    },
    {
      "inputs": [],
      "name": "BURNER_ROLE",
      "outputs": [
        {
          "internalType": "bytes32",
          "name": "",
          "type": "bytes32"
        }
      ],
      "stateMutability": "view",
      "type": "function"
    },
    {
      "inputs": [],
      "name": "CAP",
      "outputs": [
        {
          "internalType": "uint256",
          "name": "",
          "type": "uint256"
        }
      ],
      "stateMutability": "view",
      "type": "function"
    },
    {
      "inputs": [],
      "name": "DEFAULT_ADMIN_ROLE",
      "outputs": [
        {
          "internalType": "bytes32",
          "name": "",
          "type": "bytes32"
        }
      ],
      "stateMutability": "view",
      "type": "function"
    },
    {
      "inputs": [],
      "name": "DOMAIN_SEPARATOR",
      "outputs": [
        {
          "internalType": "bytes32",
          "name": "",
          "type": "bytes32"
        }
      ],
      "stateMutability": "view",
      "type": "function"
    },
    {
      "inputs": [],
      "name": "MAX_BPS",
      "outputs": [
        {
          "internalType": "uint256",
          "name": "",
          "type": "uint256"
        }
      ],
      "stateMutability": "view",
      "type": "function"
    },
    {
      "inputs": [],
      "name": "MAX_TAX_FOR_DEX_TRADING",
      "outputs": [
        {
          "internalType": "uint256",
          "name": "",
          "type": "uint256"
        }
      ],
      "stateMutability": "view",
      "type": "function"
    },
    {
      "inputs": [],
      "name": "MINTER_ROLE",
      "outputs": [
        {
          "internalType": "bytes32",
          "name": "",
          "type": "bytes32"
        }
      ],
      "stateMutability": "view",
      "type": "function"
    },
    {
      "inputs": [],
      "name": "PAUSER_ROLE",
      "outputs": [
        {
          "internalType": "bytes32",
          "name": "",
          "type": "bytes32"
        }
      ],
      "stateMutability": "view",
      "type": "function"
    },
    {
      "inputs": [],
      "name": "TAX_MARKER_ROLE",
      "outputs": [
        {
          "internalType": "bytes32",
          "name": "",
          "type": "bytes32"
        }
      ],
      "stateMutability": "view",
      "type": "function"
    },
    {
      "inputs": [],
      "name": "UNTAXABLE_ROLE",
      "outputs": [
        {
          "internalType": "bytes32",
          "name": "",
          "type": "bytes32"
        }
      ],
      "stateMutability": "view",
      "type": "function"
    },
    {
      "inputs": [
        {
          "internalType": "address",
          "name": "owner",
          "type": "address"
        },
        {
          "internalType": "address",
          "name": "spender",
          "type": "address"
        }
      ],
      "name": "allowance",
      "outputs": [
        {
          "internalType": "uint256",
          "name": "",
          "type": "uint256"
        }
      ],
      "stateMutability": "view",
      "type": "function"
    },
    {
      "inputs": [
        {
          "internalType": "address",
          "name": "spender",
          "type": "address"
        },
        {
          "internalType": "uint256",
          "name": "value",
          "type": "uint256"
        }
      ],
      "name": "approve",
      "outputs": [
        {
          "internalType": "bool",
          "name": "",
          "type": "bool"
        }
      ],
      "stateMutability": "nonpayable",
      "type": "function"
    },
    {
      "inputs": [
        {
          "internalType": "address",
          "name": "account",
          "type": "address"
        }
      ],
      "name": "balanceOf",
      "outputs": [
        {
          "internalType": "uint256",
          "name": "",
          "type": "uint256"
        }
      ],
      "stateMutability": "view",
      "type": "function"
    },
    {
      "inputs": [
        {
          "internalType": "address",
          "name": "from",
          "type": "address"
        },
        {
          "internalType": "uint256",
          "name": "amount",
          "type": "uint256"
        }
      ],
      "name": "burn",
      "outputs": [],
      "stateMutability": "nonpayable",
      "type": "function"
    },
    {
      "inputs": [],
      "name": "currentTaxForDexTrading",
      "outputs": [
        {
          "internalType": "uint256",
          "name": "",
          "type": "uint256"
        }
      ],
      "stateMutability": "view",
      "type": "function"
    },
    {
      "inputs": [],
      "name": "decimals",
      "outputs": [
        {
          "internalType": "uint8",
          "name": "",
          "type": "uint8"
        }
      ],
      "stateMutability": "view",
      "type": "function"
    },
    {
      "inputs": [],
      "name": "eip712Domain",
      "outputs": [
        {
          "internalType": "bytes1",
          "name": "fields",
          "type": "bytes1"
        },
        {
          "internalType": "string",
          "name": "name",
          "type": "string"
        },
        {
          "internalType": "string",
          "name": "version",
          "type": "string"
        },
        {
          "internalType": "uint256",
          "name": "chainId",
          "type": "uint256"
        },
        {
          "internalType": "address",
          "name": "verifyingContract",
          "type": "address"
        },
        {
          "internalType": "bytes32",
          "name": "salt",
          "type": "bytes32"
        },
        {
          "internalType": "uint256[]",
          "name": "extensions",
          "type": "uint256[]"
        }
      ],
      "stateMutability": "view",
      "type": "function"
    },
    {
      "inputs": [
        {
          "internalType": "bytes32",
          "name": "role",
          "type": "bytes32"
        }
      ],
      "name": "getRoleAdmin",
      "outputs": [
        {
          "internalType": "bytes32",
          "name": "",
          "type": "bytes32"
        }
      ],
      "stateMutability": "view",
      "type": "function"
    },
    {
      "inputs": [
        {
          "internalType": "bytes32",
          "name": "role",
          "type": "bytes32"
        },
        {
          "internalType": "uint256",
          "name": "index",
          "type": "uint256"
        }
      ],
      "name": "getRoleMember",
      "outputs": [
        {
          "internalType": "address",
          "name": "",
          "type": "address"
        }
      ],
      "stateMutability": "view",
      "type": "function"
    },
    {
      "inputs": [
        {
          "internalType": "bytes32",
          "name": "role",
          "type": "bytes32"
        }
      ],
      "name": "getRoleMemberCount",
      "outputs": [
        {
          "internalType": "uint256",
          "name": "",
          "type": "uint256"
        }
      ],
      "stateMutability": "view",
      "type": "function"
    },
    {
      "inputs": [
        {
          "internalType": "bytes32",
          "name": "role",
          "type": "bytes32"
        },
        {
          "internalType": "address",
          "name": "account",
          "type": "address"
        }
      ],
      "name": "grantRole",
      "outputs": [],
      "stateMutability": "nonpayable",
      "type": "function"
    },
    {
      "inputs": [
        {
          "internalType": "bytes32",
          "name": "role",
          "type": "bytes32"
        },
        {
          "internalType": "address",
          "name": "account",
          "type": "address"
        }
      ],
      "name": "hasRole",
      "outputs": [
        {
          "internalType": "bool",
          "name": "",
          "type": "bool"
        }
      ],
      "stateMutability": "view",
      "type": "function"
    },
    {
      "inputs": [
        {
          "internalType": "address",
          "name": "to",
          "type": "address"
        },
        {
          "internalType": "uint256",
          "name": "amount",
          "type": "uint256"
        }
      ],
      "name": "mint",
      "outputs": [],
      "stateMutability": "nonpayable",
      "type": "function"
    },
    {
      "inputs": [],
      "name": "name",
      "outputs": [
        {
          "internalType": "string",
          "name": "",
          "type": "string"
        }
      ],
      "stateMutability": "view",
      "type": "function"
    },
    {
      "inputs": [
        {
          "internalType": "address",
          "name": "owner",
          "type": "address"
        }
      ],
      "name": "nonces",
      "outputs": [
        {
          "internalType": "uint256",
          "name": "",
          "type": "uint256"
        }
      ],
      "stateMutability": "view",
      "type": "function"
    },
    {
      "inputs": [],
      "name": "paused",
      "outputs": [
        {
          "internalType": "bool",
          "name": "",
          "type": "bool"
        }
      ],
      "stateMutability": "view",
      "type": "function"
    },
    {
      "inputs": [
        {
          "internalType": "address",
          "name": "owner",
          "type": "address"
        },
        {
          "internalType": "address",
          "name": "spender",
          "type": "address"
        },
        {
          "internalType": "uint256",
          "name": "value",
          "type": "uint256"
        },
        {
          "internalType": "uint256",
          "name": "deadline",
          "type": "uint256"
        },
        {
          "internalType": "uint8",
          "name": "v",
          "type": "uint8"
        },
        {
          "internalType": "bytes32",
          "name": "r",
          "type": "bytes32"
        },
        {
          "internalType": "bytes32",
          "name": "s",
          "type": "bytes32"
        }
      ],
      "name": "permit",
      "outputs": [],
      "stateMutability": "nonpayable",
      "type": "function"
    },
    {
      "inputs": [
        {
          "internalType": "bytes32",
          "name": "role",
          "type": "bytes32"
        },
        {
          "internalType": "address",
          "name": "callerConfirmation",
          "type": "address"
        }
      ],
      "name": "renounceRole",
      "outputs": [],
      "stateMutability": "nonpayable",
      "type": "function"
    },
    {
      "inputs": [
        {
          "internalType": "bytes32",
          "name": "role",
          "type": "bytes32"
        },
        {
          "internalType": "address",
          "name": "account",
          "type": "address"
        }
      ],
      "name": "revokeRole",
      "outputs": [],
      "stateMutability": "nonpayable",
      "type": "function"
    },
    {
      "inputs": [
        {
          "internalType": "uint256",
          "name": "_newTax",
          "type": "uint256"
        }
      ],
      "name": "setTaxForDexTrading",
      "outputs": [],
      "stateMutability": "nonpayable",
      "type": "function"
    },
    {
      "inputs": [
        {
          "internalType": "address[]",
          "name": "dexPairs",
          "type": "address[]"
        }
      ],
      "name": "setTaxMarkers",
      "outputs": [],
      "stateMutability": "nonpayable",
      "type": "function"
    },
    {
      "inputs": [
        {
          "internalType": "bytes4",
          "name": "interfaceId",
          "type": "bytes4"
        }
      ],
      "name": "supportsInterface",
      "outputs": [
        {
          "internalType": "bool",
          "name": "",
          "type": "bool"
        }
      ],
      "stateMutability": "view",
      "type": "function"
    },
    {
      "inputs": [],
      "name": "symbol",
      "outputs": [
        {
          "internalType": "string",
          "name": "",
          "type": "string"
        }
      ],
      "stateMutability": "view",
      "type": "function"
    },
    {
      "inputs": [],
      "name": "taxReceiver",
      "outputs": [
        {
          "internalType": "address",
          "name": "",
          "type": "address"
        }
      ],
      "stateMutability": "view",
      "type": "function"
    },
    {
      "inputs": [],
      "name": "totalSupply",
      "outputs": [
        {
          "internalType": "uint256",
          "name": "",
          "type": "uint256"
        }
      ],
      "stateMutability": "view",
      "type": "function"
    },
    {
      "inputs": [
        {
          "internalType": "address",
          "name": "to",
          "type": "address"
        },
        {
          "internalType": "uint256",
          "name": "value",
          "type": "uint256"
        }
      ],
      "name": "transfer",
      "outputs": [
        {
          "internalType": "bool",
          "name": "",
          "type": "bool"
        }
      ],
      "stateMutability": "nonpayable",
      "type": "function"
    },
    {
      "inputs": [
        {
          "internalType": "address",
          "name": "from",
          "type": "address"
        },
        {
          "internalType": "address",
          "name": "to",
          "type": "address"
        },
        {
          "internalType": "uint256",
          "name": "value",
          "type": "uint256"
        }
      ],
      "name": "transferFrom",
      "outputs": [
        {
          "internalType": "bool",
          "name": "",
          "type": "bool"
        }
      ],
      "stateMutability": "nonpayable",
      "type": "function"
    },
    {
      "inputs": [],
      "name": "unpause",
      "outputs": [],
      "stateMutability": "nonpayable",
      "type": "function"
    }
  ],
  "transactionHash": "0x2ee03c1877ceea06ddc9ae74f15e94eb52dd76008675191c52c4e1741cd39c3c",
  "args": [
    "0xB8A71e585B7f4357305a9174c0E0f6db1Db71AD1"
  ],
  "numDeployments": 1,
  "solcInputHash": "97b2a2f5c385886d22a68248171bb7dd",
  "bytecode": "0x610160346200072857601f62002eb938819003918201601f19168301916001600160401b0383118484101762000508578084926020946040528339810103126200072857516001600160a01b038116810362000728576040519062000064826200072c565b600882526724464f5254554e4160c01b90816020840152604051916200008a836200072c565b60088352602083015260405192620000a2846200072c565b60058452642446544e4160d81b602085015260405192620000c3846200072c565b60018452603160f81b60208501528051906001600160401b038211620005085760035490600182811c921680156200071d575b6020831014620005f55781601f849311620006ad575b50602090601f831160011462000620575f9262000614575b50508160011b915f199060031b1c1916176003555b83516001600160401b0381116200050857600454600181811c9116801562000609575b6020821014620005f557601f811162000591575b50602094601f821160011462000528579481929394955f926200051c575b50508160011b915f199060031b1c1916176004555b60ff198060055416600555620001b98262000748565b92610120938452620001cb8562000903565b9261014093845260208151910120948560e0526020815191012094610100958087524660a0526040519060208201927f8b73c3c69bb8fe3d512ecc4cf759cc79239f7b179b0ffacaa9a75d522b39400f8452604083015260608201524660808201523060a082015260a0815260c0810181811060018060401b0382111762000508576040525190206080523060c052620002658162000ab0565b620004c4575b620002768162000b20565b62000472575b620002878162000baf565b62000420575b620002988162000c38565b620003bc575b620002a98162000cd3565b6200036a575b600c80546001600160a01b0319166001600160a01b03929092169190911790556005549060ff8216620003585760019116176005557f62e78cea01bee320cd4e420270b5ea74000d11b0c9f74754ebdbfc544b05a2586020604051338152a160405191612049938462000dd0853960805184611814015260a051846118de015260c051846117de015260e051846118630152518361188901525182610abf01525181610ae90152f35b60405163d93c066560e01b8152600490fd5b5f8051602062002e798339815191525f526007602052620003b56001600160a01b0382167fc4439e32427e09edf5b1aca370f2bb908b103076e353dec3e4b0f432d9adc91962000d5c565b50620002af565b7f3c11d16cbaffd01df69ce1c404f6340ee057498f5f00246190ea54220576a8485f526007602052620004196001600160a01b0382167f360a10f095f0acb4bab03c7e1686b6b69bae47b7a30b4dbf8241dafcd5c3121a62000d5c565b506200029e565b5f8051602062002e598339815191525f5260076020526200046b6001600160a01b0382167fa4bfd7afe708e2e87e7f0e2ad9b4d545417e0f795f57b5c5ab5d799c565a04f462000d5c565b506200028d565b5f8051602062002e398339815191525f526007602052620004bd6001600160a01b0382167f270c7cc4331b1445974c76712d9bb2afa8846ba0435cde7d1460f79fd91c04bd62000d5c565b506200027c565b5f80526007602052620005016001600160a01b0382167f6d5257204ebe7d88fd91ae87941cb2dd9d8062b64ae5a2bd2d28ec40b9fbf6df62000d5c565b506200026b565b634e487b7160e01b5f52604160045260245ffd5b015190505f806200018e565b601f1982169560045f5260205f20915f5b88811062000578575083600195969798106200055f575b505050811b01600455620001a3565b01515f1960f88460031b161c191690555f808062000550565b9192602060018192868501518155019401920162000539565b60045f527f8a35acfbc15ff81a39ae7d344fd709f28e8600b4aa8c65c6b64bfe7fe36bd19b601f830160051c810160208410620005ed575b601f830160051c82018110620005e157505062000170565b5f8155600101620005c9565b5080620005c9565b634e487b7160e01b5f52602260045260245ffd5b90607f16906200015c565b015190505f8062000124565b60035f90815293507fc2575a0e9e593c00f959f8c92f12db2869c3395a3b0502d05e2516446f71f85b91905b601f198416851062000691576001945083601f1981161062000678575b505050811b0160035562000139565b01515f1960f88460031b161c191690555f808062000669565b818101518355602094850194600190930192909101906200064c565b60035f529091507fc2575a0e9e593c00f959f8c92f12db2869c3395a3b0502d05e2516446f71f85b601f840160051c81016020851062000715575b90849392915b601f830160051c82018110620007065750506200010c565b5f8155859450600101620006ee565b5080620006e8565b91607f1691620000f6565b5f80fd5b604081019081106001600160401b038211176200050857604052565b805160209081811015620007e25750601f8251116200078357808251920151908083106200077557501790565b825f19910360031b1b161790565b90604051809263305a27a960e01b82528060048301528251908160248401525f935b828510620007c8575050604492505f838284010152601f80199101168101030190fd5b8481018201518686016044015293810193859350620007a5565b906001600160401b0382116200050857600854926001938481811c91168015620008f8575b83821014620005f557601f8111620008c1575b5081601f84116001146200085957509282939183925f946200084d575b50501b915f199060031b1c19161760085560ff90565b015192505f8062000837565b919083601f19811660085f52845f20945f905b88838310620008a657505050106200088d575b505050811b0160085560ff90565b01515f1960f88460031b161c191690555f80806200087f565b8587015188559096019594850194879350908101906200086c565b60085f5284601f845f20920160051c820191601f860160051c015b828110620008ec5750506200081a565b5f8155018590620008dc565b90607f169062000807565b8051602090818110156200098f5750601f8251116200093057808251920151908083106200077557501790565b90604051809263305a27a960e01b82528060048301528251908160248401525f935b82851062000975575050604492505f838284010152601f80199101168101030190fd5b848101820151868601604401529381019385935062000952565b906001600160401b0382116200050857600954926001938481811c9116801562000aa5575b83821014620005f557601f811162000a6e575b5081601f841160011462000a0657509282939183925f94620009fa575b50501b915f199060031b1c19161760095560ff90565b015192505f80620009e4565b919083601f19811660095f52845f20945f905b8883831062000a53575050501062000a3a575b505050811b0160095560ff90565b01515f1960f88460031b161c191690555f808062000a2c565b85870151885590960195948501948793509081019062000a19565b60095f5284601f845f20920160051c820191601f860160051c015b82811062000a99575050620009c7565b5f815501859062000a89565b90607f1690620009b4565b6001600160a01b03165f8181525f8051602062002e99833981519152602052604090205460ff1662000b1b575f8181525f8051602062002e9983398151915260205260408120805460ff191660011790553391905f8051602062002e198339815191528180a4600190565b505f90565b6001600160a01b03165f8181527fe09f975e15f8f53f24cbbc282b13c40b84df485fcdb8d3997fa103dc5a4ef84160205260409020545f8051602062002e39833981519152919060ff1662000ba957815f52600660205260405f20815f5260205260405f20600160ff1982541617905533915f8051602062002e198339815191525f80a4600190565b50505f90565b6001600160a01b03165f8181527f3195c024b2ddd6d9b8f6c836aa52f67fe69376c8903d009b80229b3ce4425f5160205260409020545f8051602062002e59833981519152919060ff1662000ba957815f52600660205260405f20815f5260205260405f20600160ff1982541617905533915f8051602062002e198339815191525f80a4600190565b6001600160a01b03165f8181527f42d20fd6db25ea5a8e33f43724ad72f2ebd9488257fa78c86176b8175fc383fa60205260409020547f3c11d16cbaffd01df69ce1c404f6340ee057498f5f00246190ea54220576a848919060ff1662000ba957815f52600660205260405f20815f5260205260405f20600160ff1982541617905533915f8051602062002e198339815191525f80a4600190565b6001600160a01b03165f8181527fa8843da0163126f78831087e3f59c9099756761e61f90905c8efaa20b135250060205260409020545f8051602062002e79833981519152919060ff1662000ba957815f52600660205260405f20815f5260205260405f20600160ff1982541617905533915f8051602062002e198339815191525f80a4600190565b6001810190825f528160205260405f2054155f1462000dc85780546801000000000000000081101562000508576001810180835581101562000db4578390825f5260205f20015554915f5260205260405f2055600190565b634e487b7160e01b5f52603260045260245ffd5b5050505f9056fe6080604090808252600480361015610015575f80fd5b5f3560e01c91826301ffc9a714611311575081630595ded8146112f357816306fdde031461123f578163095ea7b314611216578163148919b5146111fa57816318160ddd146111dc57816323b872dd146110f8578163248a9ca3146110ce578163282c51f3146110a75781632f2ff15d14611044578163313ce567146110295781633644e5151461100657816336568abe14610f9e5781633f4ba83a14610ef757816340c10f1914610c6857816344f058a114610c415781635c975abb14610c1e57816370a0823114610be85781637ecebe0014610bb157816384b0196e14610aa85781638897013714610a6557816388a5fe1d14610a3e5781639010d07c146109ff57816391d14854146109bb57816395d89b41146108eb5781639dc29fac1461060d578163a217fddf146105f3578163a9059cbb146105c3578163ca15c8731461059c578163d1bc645a14610490578163d505accf14610333578163d53913931461030c578163d547741f146102d057508063dd62ed3e14610287578063e63ab1e914610260578063e6ef73d614610238578063ec81b48314610213578063f86b8d55146101ec5763fd967f47146101cd575f80fd5b346101e8575f3660031901126101e857602090516127108152f35b5f80fd5b50346101e8575f3660031901126101e857602090515f80516020611f548339815191528152f35b50346101e8575f3660031901126101e85751676765c793fa10079d601b1b8152602090f35b50346101e8575f3660031901126101e857600c5490516001600160a01b039091168152602090f35b50346101e8575f3660031901126101e857602090515f80516020611f748339815191528152f35b50346101e857806003193601126101e8576020906102a36113bb565b6102ab6113d1565b9060018060a01b038091165f5260018452825f2091165f528252805f20549051908152f35b82346101e857806003193601126101e85761030a913561030560016102f36113d1565b93835f5260066020525f20015461179b565b611904565b005b82346101e8575f3660031901126101e857602090515f80516020611f948339815191528152f35b9050346101e85760e03660031901126101e85761034e6113bb565b6103566113d1565b906044359260643560843560ff811681036101e8578142116104795760018060a01b039081851692835f52600a602052885f209081549160018301905589519060208201927f6e71edae12b1b97f4d1f60370fef10105fa2faae0126114a169c64845d6126c98452868c840152858a1660608401528a608084015260a083015260c082015260c0815260e0810181811060018060401b03821117610466578a525190206104389161042f916104096117db565b908b519161190160f01b83526002830152602282015260c43591604260a4359220611c6a565b90929192611ced565b1681810361044b5761030a86868661193e565b86516325c0072360e11b815292830152602482015260449150fd5b604187634e487b7160e01b5f525260245ffd5b865163313c898160e11b8152808401839052602490fd5b82346101e8576020806003193601126101e8576001600160401b0392803592908484116101e857366023850112156101e8578381013594851161058957506005928460051b8251956104e485830188611416565b8652602484870191830101913683116101e857602401905b82821061056a5750505061050e611745565b5f5b845181101561030a5780841b8501830151600191906001600160a01b0316610537816119d8565b610543575b5001610510565b610563905f80516020611ff48339815191525f5260078652845f20611de4565b508661053c565b81356001600160a01b03811681036101e85781529084019084016104fc565b604190634e487b7160e01b5f525260245ffd5b82346101e85760203660031901126101e857602091355f5260078252805f20549051908152f35b82346101e857806003193601126101e8576020906105ec6105e26113bb565b60243590336114b0565b5160018152f35b82346101e8575f3660031901126101e857602090515f8152f35b82346101e857806003193601126101e8576106266113bb565b6024355f80516020611f34833981519152805f5260209060068252845f20335f52825260ff9081865f205416156108cd57506001600160a01b038481169384156108b7575f80516020611f548339815191525f5260068452865f20855f52845282875f2054166108a0576005548316156106aa57865163d93c066560e01b81528890fd5b90879596915f80516020611ff48339815191525f5260068552825f205f8052855283835f20541680610877575b1561081357600b5480820290828204148215171561080057612710900491600c541684600554166107f057865f525f8652835f20548381106107d25791839188999a9461075894899a5f525f8a5203865f205580155f146107c15782600254036002555b8986518481525f80516020611fb48339815191529a8b91a36119cb565b92600554166107b157855f525f8452815f205496838810610792575050815f968688528785520381872055816002540360025551908152a3005b6107ad8489855194859463391434e360e21b86528501611492565b0390fd5b815163d93c066560e01b81528790fd5b805f52855f2083815401905561073b565b845163391434e360e21b81529081906107ad9086908d848e01611492565b835163d93c066560e01b81528890fd5b601188634e487b7160e01b5f525260245ffd5b93949592505094845f525f8452855f20549183831061085c575050905f94815f80516020611fb483398151915294938688528785520381872055816002540360025551908152a3005b6107ad8484895194859463391434e360e21b86528501611492565b505f80516020611fd48339815191525f5260068552825f20865f52855283835f205416156106d7565b8651631868ef8960e11b8152808901869052602490fd5b8651634b637e8f60e11b81525f818a0152602490fd5b855163e2517d3f60e01b815233818901526024810191909152604490fd5b9050346101e8575f3660031901126101e857815191825f835461090d81611439565b90818452602095600191876001821691825f14610994575050600114610954575b5050506109509291610941910385611416565b5192828493845283019061137d565b0390f35b8693505f92919252825f20915f925b82841061097c575050508201018161094161095061092e565b8054848a018601528895508794909301928101610963565b60ff19168782015293151560051b860190930193508492506109419150610950905061092e565b82346101e857806003193601126101e8576020916109d76113d1565b90355f5260068352815f209060018060a01b03165f52825260ff815f20541690519015158152f35b82346101e857806003193601126101e857602091355f5260078252610a28602435825f20611c41565b905491519160018060a01b039160031b1c168152f35b82346101e8575f3660031901126101e857602090515f80516020611fd48339815191528152f35b9050346101e85760203660031901126101e857803591610a83611745565b6103e88311610a9357600b839055005b9160249251916316e3a98f60e11b8352820152fd5b9050346101e8575f3660031901126101e857610ae37f0000000000000000000000000000000000000000000000000000000000000000611ac9565b91610b0d7f0000000000000000000000000000000000000000000000000000000000000000611ba5565b815191602091602084019484861060018060401b038711176105895750610b668260209287610b5999989795525f85528151988998600f60f81b8a5260e0868b015260e08a019061137d565b918883039089015261137d565b914660608701523060808701525f60a087015285830360c087015251918281520192915f5b828110610b9a57505050500390f35b835185528695509381019392810192600101610b8b565b82346101e85760203660031901126101e8576020906001600160a01b03610bd66113bb565b165f52600a8252805f20549051908152f35b82346101e85760203660031901126101e8576020906001600160a01b03610c0d6113bb565b165f525f8252805f20549051908152f35b82346101e8575f3660031901126101e85760209060ff6005541690519015158152f35b82346101e8575f3660031901126101e857602090515f80516020611ff48339815191528152f35b9050346101e857816003193601126101e857610c826113bb565b91602435905f80516020611f94833981519152805f5260209360068552825f20335f52855260ff9182845f20541615610eda5750600291825496676765c793fa10079d601b1b610cd2878a611471565b11610eca576001600160a01b03908116978815610eb4575f80516020611f548339815191525f5260068852855f20895f52885282865f205416610e9d57600554831615610d6857505060055416610d5a5750915f939183610d42835f80516020611fb48339815191529654611471565b905585855284835280852082815401905551908152a3005b825163d93c066560e01b8152fd5b5f80516020611ff48339815191525f999792989694999593955260068652835f20875f52865284845f20541680610e74575b15610e535750600b54808202908282041482151715610e4057612710900496600c54168460055416610e305796610e0491869798610dd9838654611471565b855580610e1c578285540385555b5f86518481525f80516020611fb48339815191529a8b91a36119cb565b92600554166107b1575f959650610d42838254611471565b805f525f8852855f20838154019055610de7565b835163d93c066560e01b81528990fd5b601189634e487b7160e01b5f525260245ffd5b5f80516020611fb48339815191529698505f975081945090610d4291611471565b505f80516020611fd48339815191525f5260068652835f205f8052865284845f20541615610d9a565b8551631868ef8960e11b81528085018a9052602490fd5b855163ec442f0560e01b81525f81860152602490fd5b84516310a2bf0360e01b81528390fd5b6044925083519163e2517d3f60e01b835233908301526024820152fd5b82346101e8575f3660031901126101e8575f80516020611f74833981519152805f526006602052815f20335f5260205260ff825f20541615610f8257506005549160ff831615610f74577f5db9ee0a495bf2e6ff9c91a7834c1ba4fdd244a5e8aa4e537bd38aeae4b073aa6020838560ff191660055551338152a1005b9051638dfc202b60e01b8152fd5b60449291519163e2517d3f60e01b835233908301526024820152fd5b82346101e857806003193601126101e8578135610fb96113d1565b915f80516020611f548339815191528214610ff757336001600160a01b03841603610fe85761030a8383611904565b5163334bd91960e11b81528390fd5b5163c785b75b60e01b81528390fd5b82346101e8575f3660031901126101e8576020906110226117db565b9051908152f35b82346101e8575f3660031901126101e8576020905160128152f35b9050346101e857816003193601126101e85735906110606113d1565b90825f5260066020526110786001825f20015461179b565b6110828284611a64565b61108857005b5f928352600760205290912061030a916001600160a01b031690611de4565b82346101e8575f3660031901126101e857602090515f80516020611f348339815191528152f35b82346101e85760203660031901126101e857602091355f52600682526001815f2001549051908152f35b9050346101e85760603660031901126101e8576111136113bb565b61111b6113d1565b906044359260018060a01b038216805f526001602052855f20335f52602052855f2054915f198303611156575b6020876105ec8888886114b0565b8583106111be5781156111a857331561119257505f908152600160209081528682203383528152908690209185900390915582906105ec611148565b6024905f885191634a1406b160e11b8352820152fd5b6024905f88519163e602df0560e01b8352820152fd5b90506107ad858751938493637dc7a0d960e11b855233908501611492565b82346101e8575f3660031901126101e8576020906002549051908152f35b82346101e8575f3660031901126101e857602090516103e88152f35b82346101e857806003193601126101e8576020906105ec6112356113bb565b602435903361193e565b82346101e8575f3660031901126101e85780516003549091825f61126284611439565b808352602094600190866001821691825f146112d1575050600114611294575b50506109509291610941910385611416565b9085925060035f52825f20915f925b8284106112b95750505082010181610941611282565b8054848a0186015288955087949093019281016112a3565b60ff19168682015292151560051b850190920192508391506109419050611282565b82346101e8575f3660031901126101e857602090600b549051908152f35b90346101e85760203660031901126101e857359063ffffffff60e01b82168092036101e857602091635a05180f60e01b8114908115611352575b5015158152f35b637965db0b60e01b81149150811561136c575b508361134b565b6301ffc9a760e01b14905083611365565b91908251928382525f5b8481106113a7575050825f602080949584010152601f8019910116010190565b602081830181015184830182015201611387565b600435906001600160a01b03821682036101e857565b602435906001600160a01b03821682036101e857565b604081019081106001600160401b0382111761140257604052565b634e487b7160e01b5f52604160045260245ffd5b601f909101601f19168101906001600160401b0382119082101761140257604052565b90600182811c92168015611467575b602083101461145357565b634e487b7160e01b5f52602260045260245ffd5b91607f1691611448565b9190820180921161147e57565b634e487b7160e01b5f52601160045260245ffd5b604091949392606082019560018060a01b0316825260208201520152565b9192906001600160a01b039081841690811561172d578216918215611715575f8281527f68b5e0961db8ab913dc96aa269c82d98db4ef318f163a942d71b7845ea6951f16020908152604091829020549196909260ff9283166116fd5760055483161561152857875163d93c066560e01b8152600490fd5b5f80516020611ff48339815191525f989394959697985260068552825f20875f52855283835f205416806116d4575b1561166f57600b54808a02908a8204148a15171561147e57612710900490600c541698846005541661165e57865f525f8652835f205499828b10611642579082916115d993899a9b9c899a5f525f8a5203865f205580155f146107c15782600254036002558986518481525f80516020611fb48339815191529a8b91a36119cb565b926005541661163157855f525f8452815f20549083821061161557508290865f525f855203815f2055855f52805f2082815401905551908152a3565b6107ad84845193849363391434e360e21b855260048501611492565b815163d93c066560e01b8152600490fd5b845163391434e360e21b8152806107ad858e8860048501611492565b835163d93c066560e01b8152600490fd5b50969150835f525f8352805f2054968288106116b7575081849596975f80516020611fb4833981519152955f525f855203815f2055855f52805f2082815401905551908152a3565b6107ad8389935193849363391434e360e21b855260048501611492565b505f80516020611fd48339815191525f5260068552825f20865f52855283835f20541615611557565b8751631868ef8960e11b815260048101869052602490fd5b60405163ec442f0560e01b81525f6004820152602490fd5b604051634b637e8f60e11b81525f6004820152602490fd5b335f9081527f54cdd369e4e8a8515e52ca72ec816c2101831ad1f18bf44102ed171459c9b4f8602052604090205460ff161561177d57565b60405163e2517d3f60e01b81523360048201525f6024820152604490fd5b805f52600660205260405f20335f5260205260ff60405f205416156117bd5750565b6044906040519063e2517d3f60e01b82523360048301526024820152fd5b307f00000000000000000000000000000000000000000000000000000000000000006001600160a01b031614806118db575b15611836577f000000000000000000000000000000000000000000000000000000000000000090565b60405160208101907f8b73c3c69bb8fe3d512ecc4cf759cc79239f7b179b0ffacaa9a75d522b39400f82527f000000000000000000000000000000000000000000000000000000000000000060408201527f000000000000000000000000000000000000000000000000000000000000000060608201524660808201523060a082015260a0815260c0810181811060018060401b038211176114025760405251902090565b507f0000000000000000000000000000000000000000000000000000000000000000461461180d565b61190e8282611d70565b918261191957505090565b5f9182526007602052604090912061193a916001600160a01b031690611e4e565b5090565b6001600160a01b039081169182156119b3571691821561199b5760207f8c5be1e5ebec7d5bd14f71427d1e84f3dd0314c0f7b2291e5b200ac8c7c3b92591835f526001825260405f20855f5282528060405f2055604051908152a3565b604051634a1406b160e11b81525f6004820152602490fd5b60405163e602df0560e01b81525f6004820152602490fd5b9190820391821161147e57565b6001600160a01b03165f8181527fe89782363d272228d8b5a0009399ac17f0015e49ffafe326aeceb88be40700f060205260409020545f80516020611ff4833981519152919060ff16611a5e57815f52600660205260405f20815f5260205260405f20600160ff1982541617905533915f80516020611f148339815191525f80a4600190565b50505f90565b90815f52600660205260405f209060018060a01b031690815f5260205260ff60405f205416155f14611a5e57815f52600660205260405f20815f5260205260405f20600160ff1982541617905533915f80516020611f148339815191525f80a4600190565b60ff8114611b075760ff811690601f8211611af55760405191611aeb836113e7565b8252602082015290565b604051632cd44ac360e21b8152600490fd5b50604051600854815f611b1983611439565b808352602093600190818116908115611b855750600114611b46575b5050611b4392500382611416565b90565b9093915060085f52815f20935f915b818310611b6d575050611b4393508201015f80611b35565b85548784018501529485019486945091830191611b55565b915050611b4394925060ff191682840152151560051b8201015f80611b35565b60ff8114611bc75760ff811690601f8211611af55760405191611aeb836113e7565b50604051600954815f611bd983611439565b808352602093600190818116908115611b855750600114611c02575050611b4392500382611416565b9093915060095f52815f20935f915b818310611c29575050611b4393508201015f80611b35565b85548784018501529485019486945091830191611c11565b8054821015611c56575f5260205f2001905f90565b634e487b7160e01b5f52603260045260245ffd5b91906fa2a8918ca85bafe22016d0b997e4df60600160ff1b038411611ce2579160209360809260ff5f9560405194855216868401526040830152606082015282805260015afa15611cd7575f516001600160a01b03811615611ccd57905f905f90565b505f906001905f90565b6040513d5f823e3d90fd5b5050505f9160039190565b6004811015611d5c5780611cff575050565b60018103611d195760405163f645eedf60e01b8152600490fd5b60028103611d3a5760405163fce698f760e01b815260048101839052602490fd5b600314611d445750565b602490604051906335e2f38360e21b82526004820152fd5b634e487b7160e01b5f52602160045260245ffd5b90815f52600660205260405f209060018060a01b031690815f5260205260ff60405f2054165f14611a5e57815f52600660205260405f20815f5260205260405f2060ff19815416905533917ff6391f5c32d9c69d2a47ea670b442974b53935d1edc7fd64eb21e047a839171b5f80a4600190565b6001810190825f528160205260405f2054155f14611e47578054600160401b81101561140257611e34611e1e826001879401855584611c41565b819391549060031b91821b915f19901b19161790565b905554915f5260205260405f2055600190565b5050505f90565b906001820191815f528260205260405f2054908115155f14611f0b575f199180830181811161147e5782549084820191821161147e57818103611ed6575b50505080548015611ec257820191611ea48383611c41565b909182549160031b1b19169055555f526020525f6040812055600190565b634e487b7160e01b5f52603160045260245ffd5b611ef6611ee6611e1e9386611c41565b90549060031b1c92839286611c41565b90555f528460205260405f20555f8080611e8c565b505050505f9056fe2f8788117e7eff1d82e926ec794901d17c78024a50270940304540a733656f0d3c11d16cbaffd01df69ce1c404f6340ee057498f5f00246190ea54220576a8483735310f7cbb434a4412bb30a00c71d49f056e4bfe5a28c0b8c295a228fbbbde65d7a28e3265b37a6474929f336521b332c1681b933f6cb9f3376673440d862a9f2df0fed2c77648de5860a4cc508cd0818c85b8b8a1ab4ceeef8d981c8956a6ddf252ad1be2c89b69c2b068fc378daa952ba7f163c4a11628f55a4df523b3efe6ce2fd253f834e3792bdcc23060ee5cec4557e6dacf860223545766b89ad297e59596f6b03c26145d119a32240d2f0761778466af0ffee8eae38417e2df28b1a2646970667358221220787be41cfe11527fff4498f87c81599618b37a62b5c946aa418b0f853b6279d464736f6c634300081700332f8788117e7eff1d82e926ec794901d17c78024a50270940304540a733656f0d65d7a28e3265b37a6474929f336521b332c1681b933f6cb9f3376673440d862a9f2df0fed2c77648de5860a4cc508cd0818c85b8b8a1ab4ceeef8d981c8956a6e6ce2fd253f834e3792bdcc23060ee5cec4557e6dacf860223545766b89ad29754cdd369e4e8a8515e52ca72ec816c2101831ad1f18bf44102ed171459c9b4f8",
  "devdoc": {
    "errors": {
      "AccessControlBadConfirmation()": [
        {
          "details": "The caller of a function is not the expected one. NOTE: Don't confuse with {AccessControlUnauthorizedAccount}."
        }
      ],
      "AccessControlUnauthorizedAccount(address,bytes32)": [
        {
          "details": "The `account` is missing a role."
        }
      ],
      "ECDSAInvalidSignature()": [
        {
          "details": "The signature derives the `address(0)`."
        }
      ],
      "ECDSAInvalidSignatureLength(uint256)": [
        {
          "details": "The signature has an invalid length."
        }
      ],
      "ECDSAInvalidSignatureS(bytes32)": [
        {
          "details": "The signature has an S value that is in the upper half order."
        }
      ],
      "ERC20InsufficientAllowance(address,uint256,uint256)": [
        {
          "details": "Indicates a failure with the `spender`s `allowance`. Used in transfers.",
          "params": {
            "allowance": "Amount of tokens a `spender` is allowed to operate with.",
            "needed": "Minimum amount required to perform a transfer.",
            "spender": "Address that may be allowed to operate on tokens without being their owner."
          }
        }
      ],
      "ERC20InsufficientBalance(address,uint256,uint256)": [
        {
          "details": "Indicates an error related to the current `balance` of a `sender`. Used in transfers.",
          "params": {
            "balance": "Current balance for the interacting account.",
            "needed": "Minimum amount required to perform a transfer.",
            "sender": "Address whose tokens are being transferred."
          }
        }
      ],
      "ERC20InvalidApprover(address)": [
        {
          "details": "Indicates a failure with the `approver` of a token to be approved. Used in approvals.",
          "params": {
            "approver": "Address initiating an approval operation."
          }
        }
      ],
      "ERC20InvalidReceiver(address)": [
        {
          "details": "Indicates a failure with the token `receiver`. Used in transfers.",
          "params": {
            "receiver": "Address to which tokens are being transferred."
          }
        }
      ],
      "ERC20InvalidSender(address)": [
        {
          "details": "Indicates a failure with the token `sender`. Used in transfers.",
          "params": {
            "sender": "Address whose tokens are being transferred."
          }
        }
      ],
      "ERC20InvalidSpender(address)": [
        {
          "details": "Indicates a failure with the `spender` to be approved. Used in approvals.",
          "params": {
            "spender": "Address that may be allowed to operate on tokens without being their owner."
          }
        }
      ],
      "ERC2612ExpiredSignature(uint256)": [
        {
          "details": "Permit deadline has expired."
        }
      ],
      "ERC2612InvalidSigner(address,address)": [
        {
          "details": "Mismatched signature."
        }
      ],
      "EnforcedPause()": [
        {
          "details": "The operation failed because the contract is paused."
        }
      ],
      "ExpectedPause()": [
        {
          "details": "The operation failed because the contract is not paused."
        }
      ],
      "InvalidAccountNonce(address,uint256)": [
        {
          "details": "The nonce used for an `account` is not the expected current nonce."
        }
      ]
    },
    "events": {
      "Approval(address,address,uint256)": {
        "details": "Emitted when the allowance of a `spender` for an `owner` is set by a call to {approve}. `value` is the new allowance."
      },
      "EIP712DomainChanged()": {
        "details": "MAY be emitted to signal that the domain could have changed."
      },
      "Paused(address)": {
        "details": "Emitted when the pause is triggered by `account`."
      },
      "RoleAdminChanged(bytes32,bytes32,bytes32)": {
        "details": "Emitted when `newAdminRole` is set as ``role``'s admin role, replacing `previousAdminRole` `DEFAULT_ADMIN_ROLE` is the starting admin for all roles, despite {RoleAdminChanged} not being emitted signaling this."
      },
      "RoleGranted(bytes32,address,address)": {
        "details": "Emitted when `account` is granted `role`. `sender` is the account that originated the contract call, an admin role bearer except when using {AccessControl-_setupRole}."
      },
      "RoleRevoked(bytes32,address,address)": {
        "details": "Emitted when `account` is revoked `role`. `sender` is the account that originated the contract call:   - if using `revokeRole`, it is the admin role bearer   - if using `renounceRole`, it is the role bearer (i.e. `account`)"
      },
      "Transfer(address,address,uint256)": {
        "details": "Emitted when `value` tokens are moved from one account (`from`) to another (`to`). Note that `value` may be zero."
      },
      "Unpaused(address)": {
        "details": "Emitted when the pause is lifted by `account`."
      }
    },
    "kind": "dev",
    "methods": {
      "DOMAIN_SEPARATOR()": {
        "details": "Returns the domain separator used in the encoding of the signature for {permit}, as defined by {EIP712}."
      },
      "allowance(address,address)": {
        "details": "See {IERC20-allowance}."
      },
      "approve(address,uint256)": {
        "details": "See {IERC20-approve}. NOTE: If `value` is the maximum `uint256`, the allowance is not updated on `transferFrom`. This is semantically equivalent to an infinite approval. Requirements: - `spender` cannot be the zero address."
      },
      "balanceOf(address)": {
        "details": "See {IERC20-balanceOf}."
      },
      "decimals()": {
        "details": "Returns the number of decimals used to get its user representation. For example, if `decimals` equals `2`, a balance of `505` tokens should be displayed to a user as `5.05` (`505 / 10 ** 2`). Tokens usually opt for a value of 18, imitating the relationship between Ether and Wei. This is the default value returned by this function, unless it's overridden. NOTE: This information is only used for _display_ purposes: it in no way affects any of the arithmetic of the contract, including {IERC20-balanceOf} and {IERC20-transfer}."
      },
      "eip712Domain()": {
        "details": "See {IERC-5267}."
      },
      "getRoleAdmin(bytes32)": {
        "details": "Returns the admin role that controls `role`. See {grantRole} and {revokeRole}. To change a role's admin, use {_setRoleAdmin}."
      },
      "getRoleMember(bytes32,uint256)": {
        "details": "Returns one of the accounts that have `role`. `index` must be a value between 0 and {getRoleMemberCount}, non-inclusive. Role bearers are not sorted in any particular way, and their ordering may change at any point. WARNING: When using {getRoleMember} and {getRoleMemberCount}, make sure you perform all queries on the same block. See the following https://forum.openzeppelin.com/t/iterating-over-elements-on-enumerableset-in-openzeppelin-contracts/2296[forum post] for more information."
      },
      "getRoleMemberCount(bytes32)": {
        "details": "Returns the number of accounts that have `role`. Can be used together with {getRoleMember} to enumerate all bearers of a role."
      },
      "grantRole(bytes32,address)": {
        "details": "Grants `role` to `account`. If `account` had not been already granted `role`, emits a {RoleGranted} event. Requirements: - the caller must have ``role``'s admin role. May emit a {RoleGranted} event."
      },
      "hasRole(bytes32,address)": {
        "details": "Returns `true` if `account` has been granted `role`."
      },
      "name()": {
        "details": "Returns the name of the token."
      },
      "nonces(address)": {
        "details": "Returns the current nonce for `owner`. This value must be included whenever a signature is generated for {permit}. Every successful call to {permit} increases ``owner``'s nonce by one. This prevents a signature from being used multiple times."
      },
      "paused()": {
        "details": "Returns true if the contract is paused, and false otherwise."
      },
      "permit(address,address,uint256,uint256,uint8,bytes32,bytes32)": {
        "details": "Sets `value` as the allowance of `spender` over ``owner``'s tokens, given ``owner``'s signed approval. IMPORTANT: The same issues {IERC20-approve} has related to transaction ordering also apply here. Emits an {Approval} event. Requirements: - `spender` cannot be the zero address. - `deadline` must be a timestamp in the future. - `v`, `r` and `s` must be a valid `secp256k1` signature from `owner` over the EIP712-formatted function arguments. - the signature must use ``owner``'s current nonce (see {nonces}). For more information on the signature format, see the https://eips.ethereum.org/EIPS/eip-2612#specification[relevant EIP section]. CAUTION: See Security Considerations above."
      },
      "revokeRole(bytes32,address)": {
        "details": "Revokes `role` from `account`. If `account` had been granted `role`, emits a {RoleRevoked} event. Requirements: - the caller must have ``role``'s admin role. May emit a {RoleRevoked} event."
      },
      "supportsInterface(bytes4)": {
        "details": "See {IERC165-supportsInterface}."
      },
      "symbol()": {
        "details": "Returns the symbol of the token, usually a shorter version of the name."
      },
      "totalSupply()": {
        "details": "See {IERC20-totalSupply}."
      },
      "transfer(address,uint256)": {
        "details": "See {IERC20-transfer}. Requirements: - `to` cannot be the zero address. - the caller must have a balance of at least `value`."
      },
      "transferFrom(address,address,uint256)": {
        "details": "See {IERC20-transferFrom}. Emits an {Approval} event indicating the updated allowance. This is not required by the EIP. See the note at the beginning of {ERC20}. NOTE: Does not update the allowance if the current allowance is the maximum `uint256`. Requirements: - `from` and `to` cannot be the zero address. - `from` must have a balance of at least `value`. - the caller must have allowance for ``from``'s tokens of at least `value`."
      }
    },
    "version": 1
  },
  "userdoc": {
    "kind": "user",
    "methods": {
      "setTaxForDexTrading(uint256)": {
        "notice": "You should specify an amount of BPS that are going to go to the user and not tax receiver. For example: if `_newTax` = 9800 then 98% are going to the user, 2% to the tax receiver."
      }
    },
    "version": 1
  },
  "storageLayout": {
    "storage": [
      {
        "astId": 879,
        "contract": "contracts/FortunaGovernanceToken.sol:FortunaGovernanceToken",
        "label": "_balances",
        "offset": 0,
        "slot": "0",
        "type": "t_mapping(t_address,t_uint256)"
      },
      {
        "astId": 885,
        "contract": "contracts/FortunaGovernanceToken.sol:FortunaGovernanceToken",
        "label": "_allowances",
        "offset": 0,
        "slot": "1",
        "type": "t_mapping(t_address,t_mapping(t_address,t_uint256))"
      },
      {
        "astId": 887,
        "contract": "contracts/FortunaGovernanceToken.sol:FortunaGovernanceToken",
        "label": "_totalSupply",
        "offset": 0,
        "slot": "2",
        "type": "t_uint256"
      },
      {
        "astId": 889,
        "contract": "contracts/FortunaGovernanceToken.sol:FortunaGovernanceToken",
        "label": "_name",
        "offset": 0,
        "slot": "3",
        "type": "t_string_storage"
      },
      {
        "astId": 891,
        "contract": "contracts/FortunaGovernanceToken.sol:FortunaGovernanceToken",
        "label": "_symbol",
        "offset": 0,
        "slot": "4",
        "type": "t_string_storage"
      },
      {
        "astId": 1806,
        "contract": "contracts/FortunaGovernanceToken.sol:FortunaGovernanceToken",
        "label": "_paused",
        "offset": 0,
        "slot": "5",
        "type": "t_bool"
      },
      {
        "astId": 26,
        "contract": "contracts/FortunaGovernanceToken.sol:FortunaGovernanceToken",
        "label": "_roles",
        "offset": 0,
        "slot": "6",
        "type": "t_mapping(t_bytes32,t_struct(RoleData)21_storage)"
      },
      {
        "astId": 548,
        "contract": "contracts/FortunaGovernanceToken.sol:FortunaGovernanceToken",
        "label": "_roleMembers",
        "offset": 0,
        "slot": "7",
        "type": "t_mapping(t_bytes32,t_struct(AddressSet)5203_storage)"
      },
      {
        "astId": 2881,
        "contract": "contracts/FortunaGovernanceToken.sol:FortunaGovernanceToken",
        "label": "_nameFallback",
        "offset": 0,
        "slot": "8",
        "type": "t_string_storage"
      },
      {
        "astId": 2883,
        "contract": "contracts/FortunaGovernanceToken.sol:FortunaGovernanceToken",
        "label": "_versionFallback",
        "offset": 0,
        "slot": "9",
        "type": "t_string_storage"
      },
      {
        "astId": 1743,
        "contract": "contracts/FortunaGovernanceToken.sol:FortunaGovernanceToken",
        "label": "_nonces",
        "offset": 0,
        "slot": "10",
        "type": "t_mapping(t_address,t_uint256)"
      },
      {
        "astId": 5769,
        "contract": "contracts/FortunaGovernanceToken.sol:FortunaGovernanceToken",
        "label": "currentTaxForDexTrading",
        "offset": 0,
        "slot": "11",
        "type": "t_uint256"
      },
      {
        "astId": 5771,
        "contract": "contracts/FortunaGovernanceToken.sol:FortunaGovernanceToken",
        "label": "taxReceiver",
        "offset": 0,
        "slot": "12",
        "type": "t_address"
      }
    ],
    "types": {
      "t_address": {
        "encoding": "inplace",
        "label": "address",
        "numberOfBytes": "20"
      },
      "t_array(t_bytes32)dyn_storage": {
        "base": "t_bytes32",
        "encoding": "dynamic_array",
        "label": "bytes32[]",
        "numberOfBytes": "32"
      },
      "t_bool": {
        "encoding": "inplace",
        "label": "bool",
        "numberOfBytes": "1"
      },
      "t_bytes32": {
        "encoding": "inplace",
        "label": "bytes32",
        "numberOfBytes": "32"
      },
      "t_mapping(t_address,t_bool)": {
        "encoding": "mapping",
        "key": "t_address",
        "label": "mapping(address => bool)",
        "numberOfBytes": "32",
        "value": "t_bool"
      },
      "t_mapping(t_address,t_mapping(t_address,t_uint256))": {
        "encoding": "mapping",
        "key": "t_address",
        "label": "mapping(address => mapping(address => uint256))",
        "numberOfBytes": "32",
        "value": "t_mapping(t_address,t_uint256)"
      },
      "t_mapping(t_address,t_uint256)": {
        "encoding": "mapping",
        "key": "t_address",
        "label": "mapping(address => uint256)",
        "numberOfBytes": "32",
        "value": "t_uint256"
      },
      "t_mapping(t_bytes32,t_struct(AddressSet)5203_storage)": {
        "encoding": "mapping",
        "key": "t_bytes32",
        "label": "mapping(bytes32 => struct EnumerableSet.AddressSet)",
        "numberOfBytes": "32",
        "value": "t_struct(AddressSet)5203_storage"
      },
      "t_mapping(t_bytes32,t_struct(RoleData)21_storage)": {
        "encoding": "mapping",
        "key": "t_bytes32",
        "label": "mapping(bytes32 => struct AccessControl.RoleData)",
        "numberOfBytes": "32",
        "value": "t_struct(RoleData)21_storage"
      },
      "t_mapping(t_bytes32,t_uint256)": {
        "encoding": "mapping",
        "key": "t_bytes32",
        "label": "mapping(bytes32 => uint256)",
        "numberOfBytes": "32",
        "value": "t_uint256"
      },
      "t_string_storage": {
        "encoding": "bytes",
        "label": "string",
        "numberOfBytes": "32"
      },
      "t_struct(AddressSet)5203_storage": {
        "encoding": "inplace",
        "label": "struct EnumerableSet.AddressSet",
        "members": [
          {
            "astId": 5202,
            "contract": "contracts/FortunaGovernanceToken.sol:FortunaGovernanceToken",
            "label": "_inner",
            "offset": 0,
            "slot": "0",
            "type": "t_struct(Set)4888_storage"
          }
        ],
        "numberOfBytes": "64"
      },
      "t_struct(RoleData)21_storage": {
        "encoding": "inplace",
        "label": "struct AccessControl.RoleData",
        "members": [
          {
            "astId": 18,
            "contract": "contracts/FortunaGovernanceToken.sol:FortunaGovernanceToken",
            "label": "hasRole",
            "offset": 0,
            "slot": "0",
            "type": "t_mapping(t_address,t_bool)"
          },
          {
            "astId": 20,
            "contract": "contracts/FortunaGovernanceToken.sol:FortunaGovernanceToken",
            "label": "adminRole",
            "offset": 0,
            "slot": "1",
            "type": "t_bytes32"
          }
        ],
        "numberOfBytes": "64"
      },
      "t_struct(Set)4888_storage": {
        "encoding": "inplace",
        "label": "struct EnumerableSet.Set",
        "members": [
          {
            "astId": 4883,
            "contract": "contracts/FortunaGovernanceToken.sol:FortunaGovernanceToken",
            "label": "_values",
            "offset": 0,
            "slot": "0",
            "type": "t_array(t_bytes32)dyn_storage"
          },
          {
            "astId": 4887,
            "contract": "contracts/FortunaGovernanceToken.sol:FortunaGovernanceToken",
            "label": "_positions",
            "offset": 0,
            "slot": "1",
            "type": "t_mapping(t_bytes32,t_uint256)"
          }
        ],
        "numberOfBytes": "64"
      },
      "t_uint256": {
        "encoding": "inplace",
        "label": "uint256",
        "numberOfBytes": "32"
      }
    }
  }
}